:020000040800F2
:1000000000500020358B0008318B00082D8B000834
:100010002D8B00082D8B00082D8B000800000000A0
:10002000000000000000000000000000318B00080C
:10003000318B000800000000318B0008318B000874
:100040002D8B00082D8B00082D8B0008AD8A000831
:100050002D8B00082D8B00082D8B00082D8B0008A0
:100060002D8B00082D8B00082D8B00082D8B000890
:100070002D8B00082D8B00082D8B00082D8B000880
:100080002D8B00082D8B00082D8B00082D8B000870
:100090002D8B00082D8B00082D8B00082D8B000860
:1000A0002D8B00082D8B00082D8B00082D8B000850
:1000B0002D8B00082D8B00082D8B00082D8B000840
:1000C0002D8B00082D8B00082D8B00082D8B000830
:1000D0002D8B00082D8B00082D8B00082D8B000820
:1000E0002D8B0008ED8A00082D8B00082D8B000851
:1000F0002D8B00082D8B00082D8B00082D8B000800
:100100002D8B00082D8B00082D8B00082D8B0008EF
:100110002D8B00082D8B00082D8B00082D8B0008DF
:100120002D8B00082D8B00082D8B00082D8B0008CF
:100130002D8B00082D8B00082D8B00082D8B0008BF
:100140002D8B00082D8B00082D8B00082D8B0008AF
:100150002DE9F04F002383B01646002205460C46D9
:1001600009F026FC002876D12846214600220023EB
:1001700009F014FC30B1302200233270737003B0E8
:10018000BDE8F08F284621460AF084FB09F04EFCBA
:1001900047A3D3E90023074601902146284609F0EA
:1001A0001BFC00285DD1019A0020454909F04CFF55
:1001B00002460B462846214609F0B2FA01270546B9
:1001C0000C464FF0000A4FF00008DFF8F49021468B
:1001D000284609F02BFC00F130033370834609F008
:1001E0000FF902460B462846214608F0BBFF4B4656
:1001F000424609F06BF9013F08BF2E23054608BFB0
:1002000073700C4614BF01360236BAF1000F06D1E6
:10021000BBF1000F0CBFDA464FF0010AD7E70AF135
:10022000010ABAF1100FD2DD002FD0DC16F8013C24
:10023000013E302B03D116F8013D302BFBD0019845
:100240002E2B08BF06F1FF36012826D1002373703C
:1002500003B0BDE8F08F2D2304F100443370013664
:1002600082E715A3D3E900232846214609F0A0FB25
:10027000002898D0002F18DD3A460020104909F0D8
:10028000E3FE0B4602462146284609F049FA0123BF
:10029000013705460C46019393E76523B11C737043
:1002A00003B0BDE8F04F06F05BBA0127019788E77D
:1002B0008DEDB5A0F7C6B03E50EFE2D6E41A4B4440
:1002C000000024400000000070B54FF0FF3003F044
:1002D00055FE04466FF07F4003F050FE0646204670
:1002E00009F07EF800220C4B09F0F0F80446304685
:1002F0000D4609F075F806A3D3E9002309F010FABA
:1003000002460B462046294608F02EFF70BD00BF6E
:100310000000E0DFFFFF6F430000F03D0000000041
:100320002DE9F84FC24B21F000469E420D468A4609
:10033000044610DDBF4B9E4200F3B58000F0B08054
:10034000BD4BBE49BE4CBAF1000FD8BF0B4620468C
:100350001946BDE8F88FBB4B9E4200F3C180A3F164
:10036000DE739E4240F3AB804FF0FF3B22462B46AC
:100370002046294609F0AAF802460B4680468946DF
:1003800009F0A4F892A3D3E9002306460F4609F02A
:100390009DF891A3D3E9002308F0E6FE32463B46E0
:1003A00009F094F88EA3D3E9002308F0DDFE32466D
:1003B0003B4609F08BF88CA3D3E9002308F0D4FE68
:1003C00032463B4609F082F889A3D3E9002308F0BE
:1003D000CBFE32463B4609F079F887A3D3E90023E8
:1003E00008F0C2FE42464B4609F070F884A3D3E9F8
:1003F0000023804689463046394609F067F882A3D3
:10040000D3E9002308F0AEFE32463B4609F05EF821
:100410007FA3D3E9002308F0A5FE32463B4609F04E
:1004200055F87DA3D3E9002308F09CFE32463B46F5
:1004300009F04CF87AA3D3E9002308F093FE324682
:100440003B4609F043F8BBF1FF3F02460B466ED036
:100450004046494608F088FE22462B4609F036F809
:10046000794E7A4B4FEACB0B5E449B44DBE9002389
:1004700008F078FE22462B4608F074FE0B46024632
:10048000D6E9000108F06EFEBAF1000F04460B46F3
:10049000BFF65DAF01F1004320461946BDE8F88F75
:1004A00000283FF44DAF22462B462046294608F04F
:1004B0005BFE04460B4620461946BDE8F88F5AA35A
:1004C000D3E9002308F050FE0022614B09F08EFAB8
:1004D00000283FF449AF2B4620461946BDE8F88F67
:1004E00009F0A2FF5B4B04469E420D4630DCA3F5AB
:1004F00050239E4255DC02460B4608F035FE002292
:10050000534B08F02FFE002206460F464FF0804363
:100510002046294608F028FE02460B46304639465A
:1005200009F0FEF84FF0000B04460D461EE740466A
:10053000494608F019FE22462B4608F0C7FF0B4635
:1005400002462946204608F00DFE04460B46FEE60C
:10055000414B9E421ADC0022404B08F003FE002271
:1005600006460F463D4B2046294608F0AFFF0022C5
:10057000374B08F0F9FD02460B463046394609F084
:10058000CFF84FF0020B04460D46EFE602460B464D
:100590000020334909F0C4F84FF0030B04460D4620
:1005A000E4E600222A4B08F0DDFD002206460F4655
:1005B000274B2046294608F0D7FD02460B46304619
:1005C000394609F0ADF84FF0010B04460D46CDE673
:1005D00011DA22E33AAD903FEB0D76244B7BA93F35
:1005E000513DD0A0660DB13F6E204CC5CD45B73F03
:1005F000FF8300922449C23F0D5555555555D53FAF
:100600002F6C6A2C44B4A2BF9AFDDE522DDEAD3FA2
:100610006D9A74AFF2B0B33F711623FEC671BC3F42
:10062000C4EB98999999C93F9C7500883CE4377E42
:10063000FFFF0F440000F07FFB21F93FFB21F9BFD2
:10064000182D4454FFFFDB3F98BE0008B8BE0008D9
:100650000000F03FFFFFF23FFF7F03400000F83F44
:100660000000F0BF00000000C1F30A522DE9F0477E
:10067000A2F2FF36132E0B4604460D460746884667
:10068000824622DC002E4FDB3D4A42FA06F901EA9F
:10069000090202431ED038A3D3E9002308F064FD09
:1006A0000022002309F0A2F950B1002D04DD4FF41F
:1006B000801343FA06F6B0444FF0000A28EA090511
:1006C000544629462046BDE8F087332E06DDB6F5B0
:1006D000806F3DD019462046BDE8F0874FF0FF39C6
:1006E000A2F2134229FA02F910EA090FF2D022A36A
:1006F000D3E9002308F038FD0022002309F076F941
:100700000028DDD0002D09DD142E2FD00123C6F1E5
:10071000340603FA06F6371928BF9844454627EAF7
:10072000090A54462946CDE713A3D3E9002308F06C
:100730001BFD0022002309F059F90028C0D0002D2C
:100740000FDB55EA040709D04FF0000A0D4DB7E75B
:1007500002460B4608F008FD0446BCE7BA463D4693
:10076000AEE74FF0000A4FF00045A9E705F1010898
:10077000D4E700BFAFF300809C7500883CE4377E6F
:10078000FFFF0F000000F03FC1F30A522DE9F843CC
:10079000A2F2FF36132E0B4604460D468846074646
:1007A0001DDC002E40DB3C4A864642FA06F901EA8F
:1007B0000902024318D036A3D3E9002308F0D4FC81
:1007C0000022002309F012F920B1002D42DB00279E
:1007D00028EA09053C4629462046BDE8F883332E21
:1007E00006DDB6F5806F2FD019462046BDE8F883A8
:1007F0004FF0FF39A2F2134229FA02F910EA090F69
:10080000F2D023A3D3E9002308F0AEFC002200239A
:1008100009F0ECF80028DDD0002D21DB454627EA61
:1008200009073C462946D7E719A3D3E9002308F076
:100830009BFC0022002309F0D9F80028CAD0002D23
:1008400019DB00273D46C5E702460B4608F08CFC45
:100850000446CAE74FF4801343FA06F6B044B6E7FD
:10086000142E10D00123C6F1340603FA06F6371908
:1008700028BF9844D2E725F00042084B224318BF16
:100880001D460027A6E705F10108C7E7AFF3008082
:100890009C7500883CE4377EFFFF0F000000F0BF2E
:1008A0002DE9F84FC44E21F00043B3420C460546F3
:1008B0000DDD03F1404303F58013034340F0B9809D
:1008C000002940F3408100200021BDE8F88FBB4E95
:1008D000B34240F3A6800029C0F2788102460B465D
:1008E0000020B74908F03EFC0022B64B08F0EEFDB0
:1008F00004460D460AF06CFB95A3D3E90023894614
:1009000080462946204608F0E1FD93A3D3E9002361
:1009100008F02AFC22462B4608F0D8FD90A3D3E924
:10092000002308F01FFC22462B4608F0CFFD8EA3C3
:10093000D3E9002308F018FC22462B4608F0C6FD38
:100940008BA3D3E9002308F00DFC22462B4608F0C8
:10095000BDFD89A3D3E9002308F006FC22462B46FF
:1009600008F0B4FD86A3D3E9002382468B462046D7
:10097000294608F0ABFD84A3D3E9002308F0F2FB7D
:1009800022462B4608F0A2FD81A3D3E9002308F0FC
:10099000EBFB22462B4608F099FD7FA3D3E9002309
:1009A00008F0E0FB22462B4608F090FD0022844B25
:1009B00008F0DAFB02460B465046594608F0B0FEF6
:1009C00042464B4608F082FD002682468B46324660
:1009D0004B463046494608F079FD02460B46204614
:1009E000294608F0BFFB324604460D464B464046BA
:1009F000494608F0B9FB02460B462046294608F056
:100A00008FFE02460B465046594608F0ADFB324673
:100A10004B4608F0A9FB02460B4608F0A5FBBDE8D3
:100A2000F88F694A93420EDC5DA1D1E90001BDE86F
:100A3000F88F02460B4608F095FB02460B4608F07D
:100A40006FFEBDE8F88F02460B4608F03FFD40A35D
:100A5000D3E9002306460F4608F038FD3EA3D3E94C
:100A6000002308F081FB32463B4608F02FFD3CA3F3
:100A7000D3E9002308F076FB32463B4608F026FD1A
:100A800039A3D3E9002308F06FFB32463B4608F058
:100A90001DFD37A3D3E9002308F064FB32463B4633
:100AA00008F014FD34A3D3E9002308F05DFB3246BF
:100AB0003B4608F00BFD32A3D3E90023804689466C
:100AC0003046394608F002FD2FA3D3E9002308F091
:100AD00049FB32463B4608F0F9FC2DA3D3E900233D
:100AE00008F042FB32463B4608F0F0FC2AA3D3E96B
:100AF000002308F037FB32463B4608F0E7FC0022B3
:100B00002F4B08F031FB02460B464046494608F0A1
:100B100007FE2A46234608F0D9FC02460B4622A1CE
:100B2000D1E9000108F01EFB02460B46284621468B
:100B300008F018FB02460B4619A1D1E9000108F0A4
:100B400011FBBDE8F88F1AA1D1E90001BDE8F88FCB
:100B500009F7FD0DE13D023F88B20175E0EF493F25
:100B60003B8F68B52882A43F5544880E55C1C93FC4
:100B70007D6FEB0312D6D43F555555555555C53F9E
:100B800082922EB1C5B8B33F59018D1B6C06E63F6A
:100B9000C88A599CE52A00404B2D8A1C273A0340FD
:100BA000182D4454FB21F93F075C143326A6913CD1
:100BB000182D4454FB210940FFFFEF3FFFFFDF3FAB
:100BC0000000F03F0000E03F0000603C00225C4B72
:100BD00008F0CAFA00225B4B08F078FC40A3D3E986
:100BE000002304460D4608F071FC3FA3D3E900231F
:100BF00008F0BAFA22462B4608F068FC3CA3D3E979
:100C0000002308F0AFFA22462B4608F05FFC3AA317
:100C1000D3E9002308F0A8FA22462B4608F056FC38
:100C200037A3D3E9002308F09DFA22462B4608F0AB
:100C30004DFC35A3D3E9002308F096FA22462B4653
:100C400008F044FC80468946204629460AF0C0F94F
:100C50002FA3D3E9002306460F462046294608F075
:100C600035FC2DA3D3E9002308F07CFA22462B465D
:100C700008F02CFC2AA3D3E9002308F075FA2246D9
:100C80002B4608F023FC28A3D3E9002308F06AFAD6
:100C900022462B4608F01AFC0022294B08F064FA81
:100CA00002460B464046494608F03AFD32463B466E
:100CB00008F00CFC1EA3D3E9002308F053FA3246D7
:100CC0003B4608F051FA02460B4608F04DFA024640
:100CD0000B4619A1D1E9000108F044FABDE8F88FEC
:100CE00009F7FD0DE13D023F88B20175E0EF493F94
:100CF0003B8F68B52882A43F5544880E55C1C93F33
:100D00007D6FEB0312D6D43F555555555555C53F0C
:100D100082922EB1C5B8B33F59018D1B6C06E63FD8
:100D2000C88A599CE52A00404B2D8A1C273A03406B
:100D3000075C143326A6913C182D4454FB2109402E
:100D40000000F03F0000E03F2DE9F047C44B21F0E8
:100D50000048984584B00D46044616DD034608F168
:100D6000404808F5801858EA030326D002460B468F
:100D700008F0F8F90B46024608F0D2FC04460B4690
:100D80002046194604B0BDE8F087B64B8A46984520
:100D90002EDCB8F1795F80F26D8195A3D3E9002351
:100DA00008F0E2F90022B04B08F020FE00B32B4619
:100DB0002046194604B0BDE8F0878FA3D3E900238D
:100DC00008F084FB8EA3D3E9002306460F46204695
:100DD000294608F07BFB02460B463046394608F0B0
:100DE000C3F904460B462046194604B0BDE8F08717
:100DF0002046294609F018FB02460B4600209A4976
:100E000008F0B0F90022994B08F060FB7EA3D3E90B
:100E1000002304460D4608F059FB7DA3D3E90023C7
:100E200008F0A2F922462B4608F050FB7AA3D3E93A
:100E3000002308F097F922462B4608F047FB78A3D9
:100E4000D3E9002308F090F922462B4608F03EFB38
:100E500075A3D3E9002308F085F922462B4608F054
:100E600035FB73A3D3E9002308F07EF922462B4615
:100E700008F02CFB70A3D3E90023CDE90001204644
:100E8000294608F023FB6EA3D3E9002308F06AF992
:100E900022462B4608F01AFB6BA3D3E9002308F087
:100EA00063F922462B4608F011FB69A3D3E900231E
:100EB00008F058F922462B4608F008FB6A4B00223E
:100EC00008F052F9CDE90201204629460AF080F8DF
:100ED000674B064698450F4667DCDDE90223DDE9EE
:100EE000000108F01DFC3246CDE900013B463046CA
:100EF000394608F039F902460B46DDE9000108F0F1
:100F0000E5FA4FF00008CDE9000142463B46404675
:100F1000394608F0DBFA02460B462046294608F01F
:100F200021F9424604460D463B463046394608F014
:100F30001BF902460B462046294608F0F1FB024603
:100F40000B4608F011F902460B462DA1D1E900012C
:100F500008F008F902460B46DDE9000108F002F945
:100F6000424604460D463B464046394608F0FCF8EA
:100F700002460B4638A1D1E9000108F0F3F8024619
:100F80000B462046294608F0EDF80B46024632A1F2
:100F9000D1E9000108F0E6F804460B46BAF1000F6B
:100FA0003FF7EEAE03F10043EAE6DDE90223DDE9B7
:100FB000000108F0B5FB32463B4608F087FA32469E
:100FC0003B4608F0D1F802460B4608F0CDF80CA3DA
:100FD000D3E9002308F0C6F80B46024606A1D1E982
:100FE000000108F0BFF804460B46D7E7AFF30080D6
:100FF0009C7500883CE4377E182D4454FB21F93F52
:10100000075C143326A6913C09F7FD0DE13D023F34
:1010100088B20175E0EF493F3B8F68B52882A43F55
:101020005544880E55C1C93F7D6FEB0312D6D43F9E
:10103000555555555555C53F82922EB1C5B8B33F4C
:1010400059018D1B6C06E63FC88A599CE52A004071
:101050004B2D8A1C273A0340182D4454FB21E93FAD
:10106000FFFFEF3FFFFFDF3F0000F03F0000E03FEA
:101070003233EF3F02460B4608F028FA38A3D3E993
:10108000002306460F4608F021FA37A3D3E90023D0
:1010900008F06AF832463B4608F018FA34A3D3E960
:1010A000002308F05FF832463B4608F00FFA32A3FF
:1010B000D3E9002308F058F832463B4608F006FA18
:1010C0002FA3D3E9002308F04DF832463B4608F041
:1010D000FDF92DA3D3E9002308F046F832463B463C
:1010E00008F0F4F92AA3D3E9002380468946304664
:1010F000394608F0EBF928A3D3E9002308F032F8C9
:1011000032463B4608F0E2F925A3D3E9002308F074
:101110002BF832463B4608F0D9F923A3D3E9002344
:1011200008F020F832463B4608F0D0F90022204B68
:1011300008F01AF802460B464046494608F0F0FA15
:1011400022462B4608F0C2F922462B4608F00CF83E
:1011500004460B462046194604B0BDE8F08700BFA0
:1011600009F7FD0DE13D023F88B20175E0EF493F0F
:101170003B8F68B52882A43F5544880E55C1C93FAE
:101180007D6FEB0312D6D43F555555555555C53F88
:1011900082922EB1C5B8B33F59018D1B6C06E63F54
:1011A000C88A599CE52A00404B2D8A1C273A0340E7
:1011B0000000F03F000000002DE9F84F54421443B6
:1011C00023F00049DFF8C0E149EAD47474450646CB
:1011D0000D4640D84442044321F0004B4BEAD474FE
:1011E00074458A4637D803F1404404F5801414430B
:1011F0004AD09C1704F0020444EAD17450EA0B016F
:1012000031D052EA090137D0F14552D0F34533D0FD
:10121000ABEB09094FEA2959B9F13C0F3BDC002B34
:1012200066DB3046294608F07BFA09F0FDF8FFF747
:1012300077F8012C58D0022C48D0002C5ED040A367
:10124000D3E9002307F08EFF3FA3D3E9002307F083
:1012500089FFBDE8F88F1046194632462B4607F045
:1012600083FFBDE8F88F022C19D0032C10D138A1D0
:10127000D1E90001BDE8F88FBAF1000F14DB36A107
:10128000D1E90001BDE8F88FBDE8F84FFFF748B895
:101290002946BDE8F88F30A1D1E90001C9E72AA1AC
:1012A000D1E90001BDE8F88F2DA1D1E90001BDE829
:1012B000F88FCB4524D0022CF1D0032CD7D0012CB1
:1012C0004FF0000027D00021BDE8F88F1CA3D3E920
:1012D000002307F047FF02460B461BA1D1E900019E
:1012E00007F040FFBDE8F88F01F10041BDE8F88F3D
:1012F00019F13C0F95DA002000219AE7BDE8F88F3C
:10130000022C16D0032C0FD0012C08D016A1D1E945
:101310000001BDE8F88F4FF00041BDE8F88F14A13F
:10132000D1E90001BDE8F88F13A1D1E90001BDE8C2
:10133000F88F13A1D1E90001BDE8F88FAFF3008069
:10134000075C143326A6A13C182D4454FB21094008
:10135000182D4454FB2109C0182D4454FB21F93F9A
:10136000182D4454FB21F9BF182D4454FB21E93FAB
:10137000182D4454FB21E9BFD221337F7CD902C010
:10138000D221337F7CD902400000F07F00000000B2
:101390002DE9F04FB1F5801F85B006460F460B468C
:1013A0005ADA024621F00044224300F0F880002976
:1013B000C0F27A810022D64B08F088F80B46D54A55
:1013C000064693420F466FF0350C4ADCC3F3130513
:1013D00005F5152E0EF6647E0EF4801E8EF07F52FB
:1013E00082F440121C1542EA0507A4F2FF3464445B
:1013F0000022C94B3046394604EB1E5407F0B2FEBA
:10140000AB1CC3F31303022B82468B464FF0000242
:1014100030DC002308F0C2FA002800F0C980002C5C
:1014200000F04B81204607F0EBFFA5A3D3E9002392
:1014300006460F4608F04AF8A3A3D3E90023044662
:101440000D463046394608F041F802460B46204624
:10145000294607F089FE0AE0AE4A4FF0000C93429D
:10146000B4DD32463B463046394607F07DFE05B0D6
:10147000BDE8F08F4FF0804307F076FE02460B4642
:101480005046594608F04CF9064620460F4607F0EC
:10149000B7FF3246CDE900013B4630463946CDE93B
:1014A000026708F013F802460B468046894608F0AA
:1014B0000DF887A3D3E9002306460F4608F006F887
:1014C00085A3D3E9002307F04FFE32463B4607F0E1
:1014D000FDFF83A3D3E9002307F046FE32463B46D7
:1014E00007F0F4FF80A3D3E9002307F03DFE424656
:1014F0004B4607F0EBFF7EA3D3E9002380468946E5
:101500003046394607F0E2FF7BA3D3E9002307F01A
:101510002BFE32463B4607F0D9FF79A3D3E90023DF
:1015200007F022FE32463B4607F0D0FF0B4602464C
:101530004946404607F018FEA5F5C223C5F5D72554
:10154000A3F27A4351351D43002D8046894656DD6E
:101550000022724B5046594607F0B8FF52465B4690
:1015600007F0B4FF06460F46002C68D132463B46D2
:101570004046494607F0F8FDDDE9022307F0A6FFE3
:1015800002460B463046394607F0ECFD02460B4654
:101590005046594607F0E6FD05B0BDE8F08F002241
:1015A000002300205E4908F0BBF805B0BDE8F08FCD
:1015B00055A3D3E900235046594607F087FF02465A
:1015C0000B460020554907F0CDFD524606460F4612
:1015D0005B465046594607F079FF02460B463046B7
:1015E000394607F073FF06460F46002C40F09A80FC
:1015F00002460B465046594607F0B4FD37E7002C2B
:1016000000F0A4802EA3D3E90023DDE9000107F058
:101610005DFF42464B4604460D465046594607F08C
:10162000A1FDDDE9022307F051FF27A3D3E9002341
:1016300006460F46DDE9000107F048FF21E020A340
:10164000D3E90023DDE9000107F040FF32463B46C5
:1016500004460D464046494607F086FDDDE9022373
:1016600007F034FF18A3D3E9002380468946DDE95B
:10167000000107F02BFF02460B464046494607F0A3
:1016800073FD02460B463046394607F06BFD524665
:101690005B4607F067FD02460B462046294607F0E9
:1016A00061FD05B0BDE8F08F02460B4607F05AFD1C
:1016B0000022002308F034F8D9E600200021D6E605
:1016C0000000E0FE422EE63F763C7935EF39EA3DF8
:1016D00044523EDF12F1C23FDE03CB966446C73F61
:1016E000599322942449D23F935555555555E53F7A
:1016F0009FC678D0099AC33FAF788E1DC571CC3F85
:1017000004FA97999999D93F555555555555D53F4F
:1017100000005043FFFFEF7F0000F03F0000E03F7C
:10172000000050C3204607F06BFE0FA3D3E900234F
:101730008046894607F0CAFE0DA3D3E9002304467C
:101740000D464046494607F0C1FE9AE702460B4661
:101750005046594607F006FDDDE9022307F0B6FEC4
:1017600014E700BFAFF300800000E0FE422EE63F2A
:10177000763C7935EF39EA3DB1F5801F2DE9F84324
:1017800004460D460B461ADA024621F00046324363
:1017900058D000295EDB0022394B07F097FE0D463A
:1017A0002B46384A044693426FF035010BDD224642
:1017B0002B462046294607F0D7FCBDE8F883314A7E
:1017C00000219342F3DC1815A0F2FF3008444FEAE1
:1017D000D0794844C3F3130807F012FEC9F57F73AC
:1017E000033348EA035506460F4620462946FFF7CD
:1017F000CFFD1DA3D3E900238046894630463946F4
:1018000007F064FE1AA3D3E9002304460D464046C0
:10181000494607F05BFE02460B462046294607F084
:10182000A3FC15A3D3E9002304460D4630463946F0
:1018300007F04CFE02460B462046294607F094FC72
:10184000BDE8F8830022002300200F4907F068FF5D
:10185000BDE8F88302460B4607F084FC0022002313
:1018600007F05EFFBDE8F883362BF111F3FE593D1A
:101870000EE526157BCBDB3F00609F501344D33F22
:1018800000005043FFFFEF7F000050C30000000046
:101890002DE9F04F23F0004757EA020493B037D008
:1018A0006B4C21F00046A64283460D4629DC9A4641
:1018B000964625D0A74224DC654CA7427BD0002D5C
:1018C00089468046CDE9002379DB0024BEF1000F74
:1018D0002ED15F4B9F4200F08E805E4B9F4263D0C3
:1018E000BAF1804F00F0C8835B4B9A4520D1002DA0
:1018F0001EDB4046494613B0BDE8F04F09F068BB17
:1019000068B106F1404606F5801656EA0B0308D189
:101910000023504C1846214613B0BDE8F08FB74263
:10192000CADD4E4813B0BDE8F04F09F015BC0024E5
:101930004046494608F078FDBBF1000F19D126B1A9
:10194000444B25F040429A4213D1BAF1000FC0F245
:10195000C983002DE0DA06F1404606F5801656EA06
:10196000040300F09D84012CD6D101F100431946F7
:10197000D2E7ED0F013D54EA050351D0384B9F42A9
:1019800074DD03F104739F4240F3F683354B9E42AE
:1019900051DDBAF1000F51DD2BA3D3E9002310462E
:1019A000194607F093FDB7E7BAF1000FC0F24A8479
:1019B00040464946B0E7BEF1000F80D0A1E72A4B70
:1019C0009F422BDCA3F154739F427FF77EAF3B1500
:1019D000A3F2FF33142B40F34B84C3F134032EFAEC
:1019E00003F202FA03F39E457FF46FAF02F00102A7
:1019F000C2F102046AE706F1404303F5801353EA9B
:101A00000B0385D0174B9E4240F33D83BAF1000F84
:101A100014DBDDE90034184621467DE7022455E752
:101A200042464B464046494607F09CFB02460B4661
:101A300007F076FE70E7BAF1000FADDB002300245B
:101A40001846214668E700BF9C7500883CE4377E55
:101A50000000F07F0000F03F0000E03FA8C3000856
:101A60000000E041FFFFEF3FFFFF3F43B6F5801F5F
:101A70004FF0000205DACE4B07F028FD6FF034027C
:101A80000E46DFF83CE33315C6F31306A3F2FF332B
:101A900046F07F57764503EB020A47F4401740F3C0
:101AA0002883C44B9E4240F3058400220023CDE9E5
:101AB0000823CDE90C2300220026BF4B0AF1010ABE
:101AC000CDE90623A7F580173946DDE90623CDE9E0
:101AD0000A0107F047FBDDE9062380468946DDE978
:101AE0000A0107F041FB02460B460020B24907F00D
:101AF00017FE0A4601461346CDE90E120246494634
:101B0000404607F0E3FC0A46014600204FF0000B78
:101B10007B1043F0005303F50023CDE9041299191B
:101B20000F4606469446584611463B463246CDE996
:101B300010BCCDE9020107F0C9FC02460B46404645
:101B4000494607F00FFBDDE906238046894630460B
:101B5000394607F007FB02460B46DDE90A0107F0AC
:101B600001FBDDE9022307F0B1FC02460B464046CB
:101B7000494607F0F7FADDE90E2307F0A7FCDDE997
:101B80000478CDE906013A4643463846414607F017
:101B90009DFC75A3D3E9002306460F4607F096FC8B
:101BA00073A3D3E9002307F0DFFA32463B4607F080
:101BB0008DFC71A3D3E9002307F0D6FA32463B46E9
:101BC00007F084FC6EA3D3E9002307F0CDFA324678
:101BD0003B4607F07BFC6CA3D3E9002307F0C4FA73
:101BE00032463B4607F072FC69A3D3E9002307F0B5
:101BF000BBFA3246804689463B463046394607F0B6
:101C000065FC02460B464046494607F05FFCDDE9AD
:101C1000022306460F46DDE9040107F0A5FADDE9D7
:101C2000062307F053FC32463B4607F09DFADDE9F8
:101C300002678046894632463B463046394607F0C1
:101C400045FC00225D4BCDE90A0107F08DFA4246C2
:101C50004B4607F089FADDE910BC0F46DDE90201C9
:101C60005A463B46CDE90EBC5E4607F02FFC0022EB
:101C7000CDE90201514B3046394607F073FADDE9F0
:101C80000A2307F06FFA02460B464046494607F022
:101C900069FADDE9042307F019FC324680468946DB
:101CA000DDE906013B4607F011FC02460B464046C3
:101CB000494607F059FA8046894602460B46DDE957
:101CC000020107F051FADDE90EBC33A3D3E900238A
:101CD0005846CDE906BC5E460F4607F0F7FBDDE946
:101CE0000223CDE904013046394607F03BFA0246AB
:101CF0000B464046494607F035FA29A3D3E90023AD
:101D000007F0E4FB28A3D3E9002380468946304648
:101D1000394607F0DBFB02460B464046494607F0D2
:101D200023FADDE90C2307F01FFA80465046894666
:101D300007F066FB06460F46DDE9040142464B46C6
:101D400007F012FADDE9082307F00EFA32463B46A7
:101D500007F00AFADDE906BC324658463B46DA4649
:101D60008B4607F0FFF92DE0EF4E454A287ECA3F2B
:101D700065DBC9934A86CD3F01411DA96074D13FFF
:101D80004D268F515555D53FFFAB6FDBB66DDB3F11
:101D9000033333333333E33F000000E009C7EE3F42
:101DA000FD033ADC09C7EE3FF5015B14E02F3EBEB0
:101DB0000000404379B60B000000F03F00000840EF
:101DC0008E980300DDE9082307F0CCF9DDE9042350
:101DD00007F0C8F902460B464046494607F0C2F9EB
:101DE00080468946DDE90012013C54EA05034FF0C4
:101DF000000314BFDA4CDB4C0846CDE904340B4633
:101E00001446CDE9023400230293DDE90245114670
:101E10002B46224607F0A6F952465B4607F056FBD2
:101E2000DDE9002306460F464046494607F04EFBD3
:101E300002460B463046394607F096F980468946F9
:101E400022462B4650465946CDE9008907F03EFB15
:101E50000B46024606460F464046494607F084F9BF
:101E6000C14B044699420D468A4640F3178101F161
:101E70003F4303F5E003034340F0EC81A4A3D3E91F
:101E80000023DDE9000107F06FF9324680468946FC
:101E90003B462046294607F065F902460B46404678
:101EA000494607F0A3FD002840F0D481A8464FF42E
:101EB000801200204FEA2853A3F2FE3342FA03F3C4
:101EC0005344C3F30A52A94DA2F2FF321541C3F3A2
:101ED000130423EA0501C2F1140B44F48014BAF18F
:101EE000000F02460B4644FA0BFB30463946B8BF9A
:101EF000CBF1000B07F036F902460B4606460F46BB
:101F0000DDE9000107F030F90D464FEA0B5A0024D5
:101F100081A3D3E900232046294607F0D7FA3246A9
:101F2000804689463B462046294607F01BF9024673
:101F30000B46DDE9000107F015F979A3D3E9002389
:101F400007F0C4FA78A3D3E9002306460F462046DB
:101F5000294607F0BBFA02460B463046394607F0E1
:101F600003F906460F4602460B464046494607F02F
:101F7000FBF842464B4604460D4607F0F3F802468E
:101F80000B463046394607F0EDF822468046894632
:101F90002B462046294607F099FA65A3D3E900238A
:101FA00006460F4607F092FA63A3D3E9002307F031
:101FB000D9F832463B4607F089FA61A3D3E90023FA
:101FC00007F0D2F832463B4607F080FA5EA3D3E929
:101FD000002307F0C7F832463B4607F077FA5CA3C8
:101FE000D3E9002307F0C0F832463B4607F06EFA0B
:101FF00002460B462046294607F0B4F806460F462F
:1020000002460B462046294607F060FA0022CDE939
:1020100000014FF080433046394607F0A3F80246EE
:102020000B46DDE9000107F07BFB424606460F4602
:102030004B462046294607F049FA42464B4607F0F0
:1020400093F802460B463046394607F08BF8224695
:102050002B4607F087F802460B460020404907F060
:1020600081F88A44BAF5801FC0F236815146DDE915
:10207000042307F02BFA4FE4424640464B464946BC
:1020800007F024FA48E4BAF1000FBFF6D7ACDDE957
:102090000034184604F1004319463DE4344B21F066
:1020A0000048984540F3F380324B0B4403430CD176
:1020B00032463B4607F056F802460B46DDE9000182
:1020C00007F080FC00283FF4F2AE23A3D3E90023FD
:1020D000DDE9040107F0FAF91FA3D3E9002307F0B3
:1020E000F5F919E402460B4600201D4907F018FBDC
:1020F0002FE400220023CDE90823CDE90C230022A0
:10210000174B0026CDE90623DEE400BFAFF30080C5
:10211000FE822B654715973C00000000432EE63FEA
:10212000EF39FAFE422EE63F396CA80C615C20BE06
:10213000D0A4BE726937663EF16BD2C541BDBB3ECD
:102140002CDE25AF6A56113F93BDBE166CC1663FAB
:102150003E5555555555C53F59F3F8C21F6EA5015B
:102160000000F03F0000F0BFFFFF8F40FFFF0F00B7
:10217000FFCB904000346F3F6B4B9E427FF75BACD0
:102180006A4B9E423FF705AC0022684B06F0EAFF1F
:1021900057A3D3E9002306460F4607F097F956A345
:1021A000D3E90023804689463046394607F08EF948
:1021B000002282468B465E4B3046394607F086F950
:1021C00002460B464EA1D1E9000106F0CBFF324694
:1021D0003B4607F07BF902460B460020554906F0C6
:1021E000C1FF3246CDE902013B463046394607F091
:1021F0006DF902460B46DDE9020107F067F942A3DB
:10220000D3E9002307F062F902460B4650465946CF
:1022100006F0A8FF02460B4606460F4640464946D2
:1022200006F0A2FF002042464B4682468B4606F04F
:1022300099FF02460B463046394606F093FF80462A
:102240008946CFE542464B460020384907F068FAF8
:10225000FFF762BB2EA3D3E90023DDE9040107F0F9
:1022600035F92BA3D3E9002307F030F9FFF754BB6E
:10227000BEF1000F7FF45BABC3F1140347FA03F226
:1022800002FA03F39F422BD07446FFF726BB294B7B
:1022900098453FF70CAEDDE902239246934636E6B9
:1022A00002460B4606F05EFF02460B4607F038FA80
:1022B000FFF732BB18A3D3E90023CDE9082318A305
:1022C000D3E90023CDE90C2300221B4B4FF48026D9
:1022D000CDE90623FFF7F8BB5A4601F049FAC6E6F6
:1022E00002F00102C2F10204FFF7F7BAAFF3008077
:1022F000000000604715F73F44DF5DF80BAE543E29
:10230000555555555555D53FFE822B654715F73F19
:102310009C7500883CE4377E0000004003B8E23F33
:1023200006D0CF43EBFD4C3EFEFFEF3F0000F03FF9
:102330000000D03F0000E03F0000F83F0000000038
:102340002DE9F04F984C21F00047A7428FB040F3A1
:102350008A801446954A0D46974226DC88A3D3E925
:102360000023002940F3A88106F0FCFE904B804634
:102370009F42894600F08C8083A3D3E9002306F0B6
:10238000F1FE02460B464046C4E90023494606F0EA
:10239000E9FE7DA3D3E9002306F0E4FE0126C4E9AB
:1023A000020130460FB0BDE8F08F824A974240F3F9
:1023B0008C80814A974261DC4FEA275AAAF2164A7A
:1023C000A7EB0A518946804607F030FB07F018F862
:1023D00006460F4632463B4640464946CDE9086729
:1023E00006F0C0FE0022754B07F070F88946804663
:1023F00007F01CFB07F004F806460F4632463B4642
:1024000040464946CDE90A6706F0ACFE00226B4B18
:1024100007F05CF800220023CDE90C0107F0BEFABA
:10242000002800F06781002330463946002207F07B
:10243000B5FA002814BF0123022302206049524646
:102440008DE80300214608A800F0B6FA002D0646E4
:1024500010DA6268E36802F1004203F10043464289
:102460006260E36006E0002400250026C2E9024520
:10247000C2E9000130460FB0BDE8F08F02460B46BE
:1024800006F070FE0026C4E90201C4E90001F1E78C
:102490003FA3D3E9002306F065FE3FA3D3E9002361
:1024A00006460F4606F05EFE02460B463046C4E97D
:1024B0000023394606F056FE37A3D3E9002306F081
:1024C00051FE0126C4E90201D4E707F0ADFF34A3B1
:1024D000D3E900238046894606F0F8FF0022394BF5
:1024E00006F042FE07F0A2FA064606F089FF24A392
:1024F000D3E90023CDE9040106F0E8FF02460B46CC
:102500004046494606F02EFE1FA3D3E9002382462B
:102510008B46DDE9040106F0D9FF1F2ECDE902014B
:1025200054DC294B721E53F822309F424ED0024693
:102530000B465046594606F015FE02460B468146AC
:102540008846C4E900234A4643465046594606F0A9
:1025500009FEDDE9022306F005FE02460B46002DCA
:10256000C4E9022386DA4A4608F1004301F100413A
:1025700084E80C00E160A06076427BE7AFF3008066
:1025800000004054FB21F93F3163621A61B4D03D31
:102590000000601A61B4D03D7370032E8A19A33B0A
:1025A00083C8C96D305FE43FFB21E93F7BD902401E
:1025B000FB21F93FFB213941FFFFEF7F0000704114
:1025C00020C700080000E03FA0C60008DDE90223A4
:1025D0005046594606F0C6FD3F15C1F30A53FB1A93
:1025E000102B81468846C4E90001ACDD54A3D3E931
:1025F0000023DDE9040106F069FF804689460246B2
:102600000B465046594606F0ADFDCDE9060102469F
:102610000B465046594606F0A5FD42464B4606F08D
:10262000A1FD49A3D3E9002380468946DDE90401E1
:1026300006F04CFF42464B4606F094FD02460B4620
:10264000CDE90201DDE9060106F08CFD0B460246EC
:102650008846C1F30A517F1A312F8146C4E900230D
:1026600068DD3BA3D3E90023DDE9040106F02EFF7A
:102670008046894602460B46DDE9060106F072FDFA
:1026800002460B4682468B46DDE9060106F06AFDEE
:1026900042464B4606F066FD2FA3D3E90023804651
:1026A0008946DDE9040106F011FF42464B4606F07B
:1026B00059FDCDE902013AE706F056FD2A4B804666
:1026C0009F42894618D026A3D3E9002306F04CFD8B
:1026D00002460B464046C4E90023494606F042FD47
:1026E0001FA3D3E9002306F03FFD4FF0FF36C4E9F6
:1026F0000201BFE60323A0E611A3D3E9002306F0FD
:1027000033FD11A3D3E9002306460F4606F02CFD46
:1027100002460B463046C4E90023394606F022FD46
:1027200009A3D3E9002306F01FFD4FF0FF36C4E9EB
:1027300002019FE6DDE906AB05E700BFAFF30080CD
:102740000000601A61B4D03D7370032E8A19A33B58
:102750000000002E8A19A33BC14920259A837B39AA
:102760003163621A61B4D03DFB21F93F00000000E3
:102770002DE9F04F21F00046B6F1795F85B00C46A7
:1027800092469B4605466BDA07F050F9002800F0A8
:10279000E7802A4623462846214606F097FE74A382
:1027A000D3E900238046894606F090FE72A3D3E960
:1027B000002306F0D9FC42464B4606F087FE70A384
:1027C000D3E9002306F0CEFC42464B4606F07EFEDF
:1027D0006DA3D3E9002306F0C7FC42464B4606F042
:1027E00075FE6BA3D3E9002306F0BCFC42464B46C2
:1027F00006F06CFE68A3D3E9002306F0B5FC424660
:102800004B4606F063FECDE900010022644B4046D2
:10281000494606F05BFEDDE9002306460F464046CA
:10282000494606F053FE5246804689465B46284696
:10283000214606F04BFE02460B464046494606F04E
:1028400091FC02460B463046394606F08BFC0246A8
:102850000B460020534906F085FC05B0BDE8F08F1B
:1028600002460B4606F032FE41A3D3E90023804620
:10287000894606F02BFE40A3D3E9002306F074FC42
:1028800042464B4606F022FE3DA3D3E9002306F064
:1028900069FC42464B4606F019FE3BA3D3E90023F0
:1028A00006F062FC42464B4606F010FE38A3D3E920
:1028B000002306F057FC42464B4606F007FE36A3BF
:1028C000D3E9002306F050FC4B46424606F0FEFDDD
:1028D000354BCDE900019E4297DD344B00229E42EC
:1028E00038DCA6F5001300202E4916461F4606F0D8
:1028F00039FCCDE902010022294B4046494606F049
:10290000E5FD32463B4606F02DFCDDE90023064698
:102910000F464046494606F0D9FD52468046894654
:102920005B462846214606F0D1FD02460B4640464E
:10293000494606F017FC02460B463046394606F07B
:1029400011FC02460B46DDE9020106F00BFC05B066
:10295000BDE8F08F164B0026CDE90223154FCAE7DC
:102960000020104905B0BDE8F08F00BFAFF3008034
:10297000D43888BEE9FAA8BDC4B1B4BD9EEE213EEC
:10298000AD529C804F7E923E9015CB19A001FA3E2D
:102990007751C1166CC1563F4C5555555555A53FFD
:1029A0000000E03F0000F03F3233D33F0000E93F3A
:1029B0000000E73F0000D23F2DE9F04F1F46ADF584
:1029C000197D9B4C0893D31E84FB0354DB17C3EB88
:1029D000A403A29E974C23EAE37554F826406B1C8F
:1029E000A3EB8303264602EBC30305947C1E0493EA
:1029F0002346099502942C1BF518039006911AD4CE
:102A000025444FF000084FF0000901351EAEA39F8A
:102A100008E057F8240006F0F3FC0134AC42E6E984
:102A2000020108D0002CF4DA404649460134AC4299
:102A3000E6E90201F6D1059B002B2EDB089B70AA6C
:102A40004FEAC309039BA9F10808984420AB9944B5
:102A5000059B0DF5DC7A02EBC30B029B002BC0F249
:102A60000C834D4600260027039BA3F1080475E95B
:102A70000223F4E9020106F029FD02460B46304626
:102A8000394606F071FB444506460F46EFD1EAE9A8
:102A90000267DA4509F10809DFD1059B0CA800930C
:102AA00003F18043013B9B00089A191F034402F184
:102AB00000520B93039B013A01440A9103EBC20BB2
:102AC000009A98A901EBC203002A53E9284513464E
:102AD0002BDD01EBC308A8F1A8080DF12C090DF5B9
:102AE000DC7A0022544B2046294606F0EFFC06F023
:102AF0009DFF06F085FC0022504B06460F4606F06F
:102B0000E5FC02460B462046294606F02BFB06F064
:102B10008DFF78E8022349F8040F3946304606F065
:102B200023FBD04504460D46DBD1DDF8109020464E
:102B300029464A4600F01CFE00224FF07F5304460F
:102B40000D4606F0C3FCFDF71FFE00223C4B06F0CD
:102B5000BDFC02460B462046294606F003FB0D4607
:102B6000044606F063FF804606F04AFC0B46024628
:102B70002946204606F0F6FA4B46002B06460F463D
:102B800040F3F580009AC9F11803511E0CAA52F8BF
:102B900021500CA845FA03F202FA03F3ED1AC9F129
:102BA000170340F8215090441D41002D62DD009B29
:102BB00008F10108002B40F37F820C9C002C00F0F0
:102BC0001883012000230CAAC4F1807442F823402A
:102BD000009A824219DD6FF07F410CAA52F8202042
:102BE0000CAC8A1A44F82020009A02339A420CDD79
:102BF0000CAA02EB8303009A0CA800EB82001A686F
:102C00008A1A43F8042B8342F9D1049B002B19DD67
:102C1000049B0124012B40F05782009B0CA95A1EF3
:102C20000CAB53F82230C3F3160341F8223057E2BD
:102C3000ABAAAA2A28C800080000703E0000704114
:102C400000002040022D15D132463B460020984915
:102C500006F088FA06460F46049A0020944900F0D0
:102C600087FD02460B463046394606F07BFA0225C0
:102C700006460F46002200233046394606F08EFEF7
:102C8000002800F051820099059B481E83420FDC0A
:102C9000002201F18043013B0CA90B9C01EB830353
:102CA00053F80419A34242EA0102F9D1002A6FD174
:102CB000059B0CAA013B52F82330002B40F03282D6
:102CC00001230A9A52F8041901330029FAD0009A14
:102CD000D31802F1010A9A4507933DDC009B08993D
:102CE000099A0B44994607990AEB020820AB08F1B0
:102CF000804803EBC9098B18A39A08F1FF3802EB4F
:102D0000880870AA02EBCA0AA39A02EB8303009315
:102D100058F8040F06F074FB029BE9E80201002B4F
:102D20001DDB4D4600260027039BA3F1080475E92F
:102D30000223F4E9020106F0C9FB02460B463046C5
:102D4000394606F011FA5C4506460F46EFD1009B66
:102D5000EAE802679845DBD1079B0093B0E60026BE
:102D60000027009BEAE802679845D1D1F4E706D135
:102D7000009B0CAA013B52F82350ED1515E70022E9
:102D80004C4B06F029FE002840F08181054671E792
:102D90000CA951F82030049902951839CDF81C80FF
:102DA0000246009004916BB900F18043013B0CA8EE
:102DB00000EB830353F80409013A18390028F9D0CD
:102DC00000920491049A0020394900F0D1FC009B44
:102DD0000446002B0D46C0F204824FF00008DA00D2
:102DE00070A901EB020B04920CAA02EB8306DFF838
:102DF000C8900BF10807043656F8040D06F000FBE6
:102E000022462B4606F062FB4B4667E9020142462A
:102E10002046294606F05AFB0CAB9E4204460D465E
:102E2000EAD14FF000090DF5907ACDF80CA0DDF84D
:102E300014A0BAF1000FC0F23C811BA1D1E900013E
:102E4000DFF878805D4600260027002403E04C452B
:102E500010DCF8E80201F5E8022306F037FB024631
:102E60000B463046394606F07FF90134A245064646
:102E70000F46ECDA039BABF1080B03EBC903C3E984
:102E800000676EAB5B4509F10109D2D1A29BDDF869
:102E90000CA0032B00F28D80DFE813F0D00092002D
:102EA00092001200AFF3008000000040FB21F93FC8
:102EB0000000F03F0000E03F0000703EF0BE000860
:102EC000009B002B40F3A381049BD34653449846B8
:102ED000D3E9006758E9029A32463B4648465146D4
:102EE00006F042F904460D4602460B464846514656
:102EF00006F038F932463B4606F036F9C8E90001DB
:102F000068E90245C34526462F46E3D1009BDA46D1
:102F1000012B40F37C81049B5B449846D3E9006716
:102F200099460DF5947B59E90234184621463246FC
:102F30003B46CDE9000106F017F904460D4602466E
:102F40000B46DDE9000106F00DF932463B4606F07E
:102F50000BF9C9E9000169E90245CB4526462F4630
:102F6000E1D100231D4608F108084CAC184678E969
:102F70000223294606F0F8F8444503460D46F5D1EC
:102F8000029A002A00F01F81DAF80440DAF80C20D7
:102F9000069FDAF80010DAF8080005F1004504F1A0
:102FA000004402F100427D613B617C60FA6039605F
:102FB000B860079B03F007000DF5197DBDE8F08FA1
:102FC00000242146049D0835554475E90223204616
:102FD00006F0CAF855450446F7D1029B002B00F0D5
:102FE000DB80069F01F100450B46DAE9000187E826
:102FF0003000224606F0B6F8009B0646002B0D4630
:103000000EDD0124FAE902233046294606F0ACF829
:10301000009B0134A34206460D46F3DA029B0BB136
:1030200005F1004532462B460699C1E90223079B6C
:1030300003F007000DF5197DBDE8F08F00231C4655
:10304000049D08355544184675E90223214606F0CB
:103050008BF8AA4503460C46F5D1029A0AB104F151
:10306000004418462146069BC3E90001079B03F074
:1030700007000DF5197DBDE8F08F00260027EAE96D
:103080000267DA4509F108097FF4E7AC05E5009B22
:1030900008F10108002BC8BF02253FF78EAD32466C
:1030A0003B460020644906F05DF8022506460F46BF
:1030B000E0E500260027DDE6049B002B26DD00244A
:1030C000049B012B3FF4A9AD022B09D1009B0CA955
:1030D0005A1E0CAB53F82230C3F3150341F82230CB
:1030E000022D7FF4C7AD32463B460020524906F020
:1030F00039F806460F46002C3FF4BCADACE500990C
:10310000013399427AD1049B002BD9DC022D7FF444
:10311000B1AD32463B460020474906F023F806464B
:103120000F46A7E50123D2E53946049F30467A428F
:103130000295CDF81C8000F01BFB00223F4B04469B
:103140000D4606F049FC002864D000223C4B204686
:10315000294606F0BBF906F069FC064606F050F970
:103160000022364B06F0B2F902460B4620462946AD
:1031700005F0F8FF06F05AFC00990B4601331A4699
:1031800000933B46183304930B460CA941F82300E7
:10319000134641F8236015E626460F462246069C54
:1031A0000B46DAE90001C4E9006705F0DBFF009B8C
:1031B0000646002B0D463FF724AF32462B460699B4
:1031C000C1E9022333E71846DAE90067DAE90223A6
:1031D0002946069DC5E90067C5E90401C5E9022342
:1031E000E7E6A29B032B3FF6E4AEDFE803F0211CE9
:1031F0001C0E009B012B86DD01230CAA52F8044F04
:10320000002C3FF47CAF581CDDE40DF5907A0023D0
:103210001D46B5E62046294606F008FC009B0CAA90
:1032200042F82300CEE500240DF5907A2146D4E63D
:1032300000231C4611E700BF0000F03F0000704172
:103240000000703E000000002DE9F04F21F0004624
:10325000B6F1795F85B00C4690469946054604DA8A
:1032600006F0E4FB002800F085802A462346284625
:10327000214606F02BF906460F4602460B46284625
:10328000214606F023F93EA3D3E9002382468B466C
:103290003046394606F01AF93BA3D3E9002305F07E
:1032A00061FF32463B4606F011F939A3D3E900230A
:1032B00005F05AFF32463B4606F008F936A3D3E93B
:1032C000002305F04FFF32463B4606F0FFF834A3DB
:1032D000D3E9002305F048FF0E9BCDE900019BB325
:1032E0000022334B4046494606F0F0F8DDE9002362
:1032F000CDE902015046594606F0E8F802460B4671
:10330000DDE9020105F02EFF32463B4606F0DEF80D
:1033100042464B4605F026FF23A3D3E90023064689
:103320000F465046594606F0D1F802460B46304645
:10333000394605F019FF02460B462846214605F09E
:1033400011FF05B0BDE8F08F02460B463046394606
:1033500006F0BCF814A3D3E9002305F003FF52469E
:103360005B4606F0B3F82A46234605F0FDFE05B09D
:10337000BDE8F08F2846214605B0BDE8F08F00BFBC
:103380007CD5CF5A3AD9E53DEB9C2B8AE6E55A3EEF
:103390007DFEB157E31DC73ED561C119A0012A3F8B
:1033A000A6F810111111813F495555555555C53F86
:1033B0000000E03F000000002DE9F04FDA4C21F062
:1033C0000046A64287B089468B46174698468246F5
:1033D0001BDC06F02BFBB0BB5346109A1E43013298
:1033E00056EA020300F0A881109B012B00F0B8817F
:1033F00052464B460020CD4906F092F904460D4650
:103400002046294607B0BDE8F08FC94B9E421ADD21
:103410000029C0F29E81A6A1D1E9000152464B4687
:1034200005F0A0FE04460D46A3A1D1E900013A46ED
:10343000434605F097FE22462B4605F095FE0027F1
:1034400082468946B84652464B465046494606F0A3
:103450003DF803460C460246CDE900340B4606F023
:1034600035F8DDE9002304460D465046494606F08E
:103470002DF893A3D3E90023CDE902012046294684
:1034800006F024F890A3D3E9002305F06DFE224650
:103490002B4606F01BF88EA3D3E9002305F064FE4B
:1034A00022462B4606F012F88BA3D3E9002305F041
:1034B0005BFE22462B4606F009F889A3D3E90023D8
:1034C00005F052FE22462B4606F000F886A3D3E90B
:1034D000002305F049FEDDE9002305F0F7FF84A392
:1034E000D3E90023CDE904012046294605F0EEFF8B
:1034F00081A3D3E9002305F037FE22462B4605F0D1
:10350000E5FF7FA3D3E9002305F02EFE22462B46DC
:1035100005F0DCFF7CA3D3E9002305F025FE22465D
:103520002B4605F0D3FF7AA3D3E9002305F01CFE58
:1035300022462B4605F0CAFF77A3D3E9002305F006
:1035400013FE02460B46DDE9040105F00DFEDDE940
:10355000022305F0BBFF3A46434605F005FEDDE9D0
:10356000002305F0B3FF02460B463846414605F0FE
:10357000FBFD6BA3D3E9002304460D46DDE9020100
:1035800005F0A4FF22462B4605F0EEFD0B46024651
:1035900049465046CDE9002305F0E6FD644B04465C
:1035A0009E420D463EDC109B012B36D002460B4658
:1035B00000205E4906F0B4F800240F464B4606464C
:1035C00052462046294605F0CDFDA04602460B4650
:1035D000DDE9000105F0C6FD42463B4605F076FFF9
:1035E000A94604460D4642463B464046494605F03C
:1035F0006DFF00224F4B05F0B7FD02460B462046FB
:10360000294605F0B1FD32463B4605F05FFF4246D4
:103610003B4605F0A9FD04460D462046294607B065
:10362000BDE8F08F109805F0EBFE224606460F46E7
:103630002B462046294605F049FF3246CDE90201D6
:103640003B462046294605F08FFD02460B46DDE944
:10365000020106F065F8DDE9002305F083FD02466E
:103660000B465046494605F07DFD02460B4605F0E7
:103670007BFD02460B463046394605F073FD044695
:103680004FEAAB7000F00200C0F101000D4605F0FA
:10369000B7FE02460B462046294605F017FF0446B2
:1036A0000D462046294607B0BDE8F08FAFF30080F5
:1036B000182D4454FB21E93F075C143326A6813CB6
:1036C000D47ABF74702AFB3EE9A7F0320FB8123FDC
:1036D00068108D1AF726303F1583E0FEC8DB573F90
:1036E00093846EE9E326823FFE41B31BBAA1AB3F50
:1036F000735360DBCB75F3BEA69237A0887E143F70
:103700000165F2F2D844433F280356C9226D6D3F4C
:1037100037D60684F464963F7AFE10111111C13F2A
:10372000635555555555D53FFFFF2F3E0000F0BF5F
:103730002794E53F0000F03F5046494606F074FEEE
:1037400002460B460020084905F0EAFF04460D46F4
:1037500063E701F100438246994608F100485AE6C2
:1037600054464D4659E700BF0000F03F00000000FE
:10377000F8B5C1F30A5604460D460B4617460EBB74
:1037800021F000430343864625D000222E4B05F04E
:103790009DFE2E4A044697420D460B462ADBC1F396
:1037A0000A56363E40F2FE723E44964228DC002E17
:1037B00012DD23F0FF4323F4E00343EA06552046DD
:1037C0002946F8BD40F2FF729642EBD102460B4605
:1037D00005F0CAFCF8BDF8BD16F1350F1DDA4CF244
:1037E00050339F420CDC14A1D1E9000122462B4644
:1037F00007F046FD10A3D3E9002305F067FEF8BDEE
:1038000022460FA1D1E900012B4607F039FD0CA398
:10381000D3E9002305F05AFEF8BD23F0FF4323F45B
:10382000E003363643EA0655204629460022084B77
:1038300005F04CFEF8BD00BF59F3F8C21F6EA5019C
:103840009C7500883CE4377E00005043B03CFFFF8D
:103850000000903C10B5054C237833B9044B13B1EC
:103860000448AFF300800123237010BD3002002014
:1038700000000000BCC900080C4B43B10C4810B557
:103880000C49AFF300800C48036823B910BD0A4807
:10389000036833B97047094B002BF7D0BDE81040DF
:1038A0001847064B002BF5D0184700BF000000005A
:1038B000BCC9000834020020EC0100200000000018
:1038C0004FF0FF30704700BF4FF0FF30704700BF30
:1038D0004FF0FF30704700BF4FF0FF30704700BF20
:1038E0004FF0FF30704700BF4FF0FF30704700BF10
:1038F0004FF0FF30704700BF4FF0FF30704700BF00
:1039000070B5049E0C46964228DB15466BB1002A22
:1039100000EB020107DD2046A21811F8013D00F876
:10392000013B9042F9D1002070BD042A0FD0022A39
:1039300002D110F0010306D001462A46204607F0C6
:1039400047FF002070BD028818460A8070BD10F045
:103950000303F1D1026818460A6070BD08460021D1
:1039600007F05BFF4FF0FF3070BD00BF08307047BD
:1039700040B1002905DB4368994202DA0844007A25
:1039800070470020704700BF30B1002904DB436856
:103990009942BCBF40180272704700BF002B23DB66
:1039A000002921DB70B54668B1421ADC5568761AE9
:1039B0001446EA1AB242A8BF3246002A11DB8442FA
:1039C0000D4607D0083408300844E11807F000FF1E
:1039D000002070BD0834E118601907F004FF0020D2
:1039E00070BD4FF0FF3070BD4FF0FF30704700BF2B
:1039F0004068704710B4141E0FDB426894420CDC20
:103A000033EA230328BF1346121B08309A4220448E
:103A1000A8BF1A4610BC07F000BF10BC704700BF1B
:103A2000436810B48B421C46A8BF0C4632EA220100
:103A300028BF19461B1B083099422044A8BF1946CD
:103A400010BC00F07BBA00BF002BB8BF436870B554
:103A5000B8BF9B1A002A0E4620DB44689918A14281
:103A60001CDC8A421ADCCBB136F0004116D0594238
:103A70008E4214DDB34212DD0830002E00EB020549
:103A800015DB9C1B2246A919284607F0ACFE3246DE
:103A900028190021BDE8704007F0BFBE70BD0022AC
:103AA000BDE8704011464FF0FF33FFF7A3BF7442EB
:103AB0009A192946281907F096FE22462846BDE89D
:103AC0007040002107F0A9BE70B50446416800208F
:103AD000490000F00FFA6668002E11DD0346094D1B
:103AE00004F1080100EB460611F8012B0233141112
:103AF00002F00F022C5DAA5C1C715A719E42F3D138
:103B000070BD00BF38BF0008002BBCBF43689B1AC4
:103B1000002A2EDB70B445689C18AC4228DCA24217
:103B200026DC2BB331F0004422D00029B8BF01EBD2
:103B3000032191FBF3F603FB16160830002EB8BFE5
:103B4000F61802441644B242134411D0304604E041
:103B5000B24208460ED090420AD0014611F8015BED
:103B600014788B4202F8015B0470F1D13046F2E721
:103B700070BC70470E46EEE710B54FF0FF3482B0D0
:103B800000230094FFF70AFF02B010BD0146002099
:103B900000F0D4B930B5013A83B004460D460F2A7F
:103BA00016D8DFE802F01717838D94172E08081F28
:103BB000424D5C367462184600F02EFE012DADF8C1
:103BC000000005DD9DF800209DF801306270237033
:103BD00003B030BD184600F01FFE002DF8DD207048
:103BE00003B030BD184600F017FE032D0090EFDD46
:103BF0006A46231D12F8011B03F8011D9C42F9D1EE
:103C0000E6E7184600F008FE002DC0B2E0DD2070A7
:103C1000E6E7184600F070FD072DCDE90001D7DD7D
:103C20006B4603CB20606160D2E7184600F08CFD44
:103C3000032DCDDDA3070CBF2060206003B030BD95
:103C4000184600F081FD032D0090C1DD6A46231D5A
:103C500012F8011B03F8011D9C42F9D1B8E7184680
:103C600000F06CFE032DE5DCB2E7184600F044FDE1
:103C7000072DCDE90001ABDD0DF1FF3204F10803A2
:103C800012F8011F03F8011DA342F9D1A0E718465D
:103C900000F054FE032D00909ADD6A46231D12F8B1
:103CA000011B03F8011DA342F9D191E7184600F06A
:103CB000B3FD012D8CDDE20754BF2080208087E713
:103CC000184600F0A9FD012D82DD80B2F3E7184609
:103CD00000F0A2FD032DADDC7AE700BF30B4141E66
:103CE00007DB456808300A462044291B30BCFFF733
:103CF00051BF30BC704700BF00B5013A85B00F2AF4
:103D000000F28880DFE802F01623303D4A56595C05
:103D10005F626571748083080123009108220DEBB6
:103D20000201FFF7EDFDDDE9020100F0BFFA05B089
:103D30005DF804FB00230091012202A9FFF7E0FDDA
:103D40009DF9080000F078FB05B05DF804FB002346
:103D50000091012202A9FFF7D3FD9DF8080000F0B1
:103D60006BFB05B05DF804FB00230091022202A961
:103D7000FFF7C6FDBDF9080000F05EFB05B05DF879
:103D800004FB00230091022202A9FFF7B9FDBDF850
:103D9000080000F051FB05B05DF804FB0023009122
:103DA000042202A9FFF7ACFD029800F045FB05B024
:103DB0005DF804FB01230091BEE701230091C8E7F1
:103DC00000910123D2E700910123DCE70091012358
:103DD000E6E700230091042202A9FFF791FD029873
:103DE00000F034FB05B05DF804FB00910123F2E71D
:103DF00000230091042202A9FFF782FD029800F03F
:103E000013FB05B05DF804FB0091002386E70091E9
:103E10000123EFE700208AE7131E08DB10B4446893
:103E200008300A461844E11A10BCFFF765BF0020AD
:103E300000F002BB02F090B902F0E2B904F0C6BB98
:103E4000C11702F0C5B800BF02F0D6B802F0E6B85C
:103E500002F080B9084619B18988063002F02CBCFE
:103E6000704700BF01F0A0B9012001F0FBBB00BF0B
:103E700000207047704700BF80880C308008704772
:103E80000320704740680B3080087047054B1B6863
:103E90002BB15A688242FAD19A688A42F7D1184601
:103EA000704700BF4C0200202DE9F041104F3B68E5
:103EB00013B90AE01B6843B15C68A042FAD19C6860
:103EC000A142F7D1DA60BDE8F081044610209046A7
:103ED0000D4604F037F906463B68012180E83800BA
:103EE00040F80C8F01F024FC3E60BDE8F08100BF7B
:103EF0004C02002070B50D1E064602DB35B90D4898
:103F000070BD07F09CFC0546002DF8D005F10900B6
:103F100001F0B2FB044608B1074B0360A58026B14F
:103F200031462A46A01D07F053FC00232544AB71FF
:103F3000204670BD10C00008B0BD000870B50D1E51
:103F400012DD064605F1080001F096FB044608B1B3
:103F5000084B036065602A46314604F108002EB123
:103F600007F036FC204670BD034870BD07F055FCD5
:103F7000204670BD50BD000804C0000830B404469F
:103F80000D4D2A6821460020930983EAD2735340DD
:103F900083EA121383EA92035208534042EAC3723F
:103FA00002F00103490843EA4000EDD18442E9D31D
:103FB0002A6030BC704700BF040000200021014887
:103FC000FFF798BFA8C30008002200B583B002AB7A
:103FD000ADF8042003F8040D18460121FFF78AFF0D
:103FE00003B05DF804FB00BF10B582B020B100291A
:103FF00002DB8388994205DB00210948FFF77AFF3D
:1040000002B010BD002401448A7902ABADF804402F
:1040100003F8042D18460121FFF76CFF02B010BD14
:10402000A8C3000870B50D46F8B10446818825B3D1
:1040300021B1AB882BB92646304670BD2E4630469E
:1040400070BD19440020FFF755FF831D0646A28866
:10405000A11D184607F0BCFB0346A088AA88184497
:10406000A91D07F0B5FB304670BD69B1AB884FF4B0
:104070006951074C002BDED0E3E719B101F5695116
:10408000034DDFE7024ED7E74FF4E941004CF7E775
:1040900064C0000888420AD008B50631063007F02F
:1040A000C4FB002805DB14BF0120002008BD002050
:1040B00070474FF0FF3008BD808870472DE9F04F02
:1040C000037883B0202B04460F4603D114F8013F38
:1040D000202BFBD02B2B08BF013423782D2B78D03D
:1040E00000214F4A302BCDE900127BD0002B00F08D
:1040F000918000264FF000084FF000094FF0000AB1
:10410000DFF820B11CE052465B464046494605F0C8
:10411000DDF980468946284605F072F942464B464D
:1041200005F022F8804689463EB1DDE9000152469D
:104130005B4605F0F5FACDE9000114F8013F5BB1EB
:10414000A3F13005092DDED9A6B92E2B12D114F812
:10415000013F0126002BF3D14246DDE900014B4629
:1041600005F0B4F9804689463C604046494603B0B4
:10417000BDE8F08F03F0DF03452B08D02378202B18
:1041800003D114F8013F202BFBD0002B3DD1DDE9FA
:1041900000234046494605F099F923788046894630
:1041A000002BE1D03946601C0A2207F085F81D4932
:1041B0000246002005F048FF02460B4640464946AD
:1041C00005F084F9804689464046494603B0BDE87B
:1041D000F08F00216378144A302BCDE9001204F1EE
:1041E000010483D1627842F02002782A81D1102222
:1041F0003946204607F060F805F002F9DDE90023B2
:1042000005F064F980468946AFE74FF00008DFF813
:104210001C90AAE74FF000084FF000099CE700BF90
:104220000000F03F000024400000F0BF0000F87FD5
:104230000B46111E10DD10B48488002BBCBF1B1967
:1042400023EAE373E41AA14200F10600A8BF214665
:10425000184410BCFFF74EBE00210148FFF74ABECC
:10426000A8C3000898B191B1002A10DB8B8810B563
:1042700084881344A34207DC841DA018063107F08C
:10428000FAFA08B1001B10BD4FF0FF3010BD4FF01F
:10429000FF30704708B5FFF7E5FF013018BF012078
:1042A00008BD00BFB0FA80F04009704738B50C1E59
:1042B000034612D1002845D002460B460C4605465F
:1042C00005F09EFB00283FD10C2001F0D5F908B184
:1042D0001E4B03604560846038BDC4F30A55A5F2E7
:1042E000FF321D2A25D8142A0DDC0028E4D1A5F2BE
:1042F000F33514FA05F3DFD1E002C2F11F0240F0FA
:104300000040D0400EE0A5F2134510FA05F5D3D1D8
:10431000E002C2F11F0140F00040C2F13402C84087
:10432000D3401843002CB8BF4042400040F0010089
:1043300038BD1E2AC0D10028BED1054B9C42BBD13E
:10434000044838BD012038BD0E2038BD80BD0008AE
:104350000000D0C101000080F0B5074683B0841D85
:10436000204601A9FFF7AAFEBA88019B1444A34284
:1043700007D000251F4E28463146FFF797FF03B0B0
:10438000F0BD0022002305460E4605F007FB00287D
:10439000F1D126F00044284621464FF0FF32164B5B
:1043A0004FF0010705F02CFB40B9284621464FF09D
:1043B000FF32114B05F01AFB00B9074617F0FF0F4B
:1043C000D7D12846214600224FF480134FF0010731
:1043D00005F016FB38B92846214600224FF4801319
:1043E00005F0E6FA18B117F0FF0FC4D0C1E7074691
:1043F000F9E700BF0000F87FFFFFEF7F08B504F08A
:10440000FFFFBDE80840FFF751BF00BF50B10029D2
:1044100008DB8388994205DA08448079400040F03F
:10442000010070470E20704708B504F0FBFFBDE89F
:104430000840FFF73BBF00BF4300B0EB630F01D064
:10444000FFF7DCBF43F00100704700BFB0F1804FC1
:1044500008B503D2400040F0010008BD04F0C0FFE1
:10446000BDE80840FFF722BF002814BF42200A2001
:10447000704700BF08B5FBF727FFBDE80840FFF70E
:1044800015BF00BF01FB00F0704700BF90FBF1F0CB
:10449000704700BF10B50C2001F0EEF8044608B1DB
:1044A00001F0E0FB204610BD00897047043001F0A8
:1044B000EBBA00BF01F07EBB01F082BB01F08EBB06
:1044C00001F09CBB01F092BB01F094BB01F09ABBE0
:1044D00001F0BABB024B1B68588CC000704700BF8C
:1044E000700200200C4B10B41B685C6A2368984271
:1044F00010D063B1002300E04AB1023354F8232006
:104500008242F9D101339B00E05810BC7047084645
:1045100010BC70470423F7E7700200204068704722
:104520004160704710B5082001F0A6F8044608B1B4
:1045300001F0A2FB204610BD70B50C1E05461646C4
:104540000EDB83889C420BDA05EB8404E36823B11D
:104550000B2140F2863001F0D9FBE660284670BDA1
:104560000A2140F2863001F0D1FBEDE704F07EB87D
:1045700018B18388002B08BF00207047003018BF97
:104580000120704710B5142001F076F8044608B1F8
:1045900001F07AFB204610BD10B5044601F080FB07
:1045A000011E05DB04F10C00BDE8104001F0ECB980
:1045B000002010BD2DE9F843204B1B68DF6A7A68A4
:1045C0003B68904203F1FF3507F1040706D303F17E
:1045D0008043013B57F8233098421FD9002680467C
:1045E00000F1060908E0494607F01FF90028B8BFA6
:1045F000661C0CDAAE420ED87419640857F82430E1
:10460000984503F10600EED12046BDE8F883FBD0C3
:10461000651EAE42F0D90020BDE8F88300235C1986
:10462000640857F824209042EED08CBF631C04F13C
:10463000FF359D42F3D20020BDE8F88370020020D0
:10464000034B01311B68DB6A53F82110FFF7A4BF4D
:104650007002002070B50E461546044601F020FB9E
:10466000011E06DB2A4604F10C00BDE8704001F093
:1046700009BA3146201D01F017FA294604F10C0051
:10468000BDE8704001F010BA034B01311B68DB6AD2
:1046900053F82110FFF7DEBF70020020014B1868AD
:1046A000704700BF6C020020704700BF820708B54A
:1046B00008D1E0B1036823F00103DA78F92A14D0B5
:1046C000042008BDB0B1C30701D5022008BD0E28E3
:1046D000FBD042280CD00A280AD00628F0D040F29D
:1046E000213003F0C3FF042008BD987808BD08BD41
:1046F000012008BD08BD00BF0E281FD010B504461C
:1047000070B915E02046FFF7D1FF022813D0032827
:104710000ED12046FFF720FE0E28044608D03CB1FB
:10472000A307EFD0204600F00FF804F069FE10BD9B
:104730000020044910BD6068A16810BD0020014937
:10474000704700BF0000F87FC107F8B503464ED49C
:10475000820745D4002848D0FFF7CEFF21F000455E
:104760000E464FF0FF322946294B04464FF0010711
:1047700005F046F938B9204629464FF0FF32244B60
:1047800005F034F9A8B317F0FF0F2ED120462946C3
:1047900000224FF480134FF0010705F031F940B9C2
:1047A0002046294600224FF4801305F001F900B994
:1047B000074617F0FF0F18D12046314605F0B0FE2E
:1047C0000022144B05F088FF0022002304460D460A
:1047D00005F0EEF890B92046294605F04FF9F8BDEE
:1047E0009B0914BF01200020F8BD0020F8BD401037
:1047F000F8BD074617F0FF0FC8D0F6E72046294658
:104800000022044B04F0B0FC04460D46E3E700BF71
:10481000FFFFEF7F0000F041FFF796BF38B50D4670
:10482000FFF792FF04462846FFF78EFF04FA00F0D8
:104830004300B0EB630F03D0BDE83840FFF7DEBDA7
:1048400043F0010038BD00BF38B50D46FFF77CFFCF
:1048500004462846FFF778FF44FA00F04300B0EB27
:10486000630F03D0BDE83840FFF7C8BD43F0010037
:1048700038BD00BF38B50D46FFF766FF0446284631
:10488000FFF762FF60404300B0EB630F03D0BDE869
:104890003840FFF7B3BD43F0010038BD38B50D46D1
:1048A000FFF752FF04462846FFF74EFF2043430020
:1048B000B0EB630F03D0BDE83840FFF79FBD43F076
:1048C000010038BD08B5FFF73FFFC0434300B0EB20
:1048D000630F03D0BDE80840FFF790BD43F001002F
:1048E00008BD00BF38B50D46FFF72EFF0446284629
:1048F000FFF72AFF20404300B0EB630F03D0BDE871
:104900003840FFF77BBD43F0010038BD38B50D4698
:10491000FFF71AFF04462846FFF716FF24FA00F0B7
:10492000B0F1804F03D2400040F0010038BD04F0E8
:1049300057FDBDE83840FFF7B9BC00BF08B5FFF729
:10494000DBFE05F0BBF808BD70B50E46FFF7D4FEE0
:10495000044630460D46FFF7CFFE02460B46204682
:10496000294604F001FCBDE87040FFF79FBC00BF82
:1049700070B50E46FFF7C0FE044630460D46FFF701
:10498000BBFE02460B462046294604F0EBFBBDE881
:104990007040FFF78BBC00BF01F00103184203D049
:1049A000C3130133012B12D9D0B50C46FFF7A4FE77
:1049B000064620460F46FFF79FFE02460B4630464E
:1049C000394604F083FDBDE8D040FFF76FBCCB1340
:1049D0000133012BE8D84310481000FB03F04300DB
:1049E000B0EB630F01D0FFF709BD43F00100704742
:1049F00070B50E46FFF780FE044630460D46FFF7C1
:104A00007BFE02460B462046294604F089FEBDE89F
:104A10007040FFF74BBC00BFF8B50C46C10703461A
:104A200015D5E20713D5620811D0FFF78DFE0546B4
:104A30002046FFF789FE95FBF0F303FB105043007F
:104A4000B0EB630F15D143F001031846F8BD1846CB
:104A5000FFF752FE064620460F46FFF74DFE0B4677
:104A600002463946304605F037FEBDE8F840FFF70C
:104A70001DBCBDE8F840FFF7C1BC00BF70B50E46D5
:104A8000FFF73AFE044630460D46FFF735FE024674
:104A90000B462046294605F07FFFBDE87040FFF732
:104AA00005BC00BF70B50E46FFF726FE0446304633
:104AB0000D46FFF721FE02460B462046294605F02B
:104AC00009FEBDE87040FFF7F1BB00BFC2072DE94A
:104AD000F8430C460AD5CB0708D540104D10854247
:104AE00024DB20D144F00100BDE8F883FFF704FE89
:104AF000064620460F46FFF7FFFD04460D460246D8
:104B00000B463046394604F071FF08BB22462B465F
:104B10003046394604F042FFA0B130463946BDE880
:104B2000F843FFF7C3BB2B4605461846401BFFF76B
:104B300025FA28444400B0EB640FD3D0BDE8F84315
:104B4000FFF75CBC22462B4634463D4616461F46C0
:104B5000FBF7BAFB8046894622462B46304639464B
:104B600004F000FB42464B4604F0B0FC22462B46C4
:104B700004F0FAFABDE8F843FFF798BB08B5FFF771
:104B8000BBFD05F007FEBDE80840FFF78FBB00BF87
:104B900008B5FFF7B1FD05F07DFEBDE80840FFF761
:104BA00085BB00BF08B5FFF7A7FD05F089FCBDE890
:104BB0000840FFF77BBB00BF08B5FFF79DFD05F080
:104BC00037FCBDE80840FFF771BB00BF08B5FFF731
:104BD00093FD05F0E1FBBDE80840FFF767BB00BFB0
:104BE00008B5FFF789FDFBF79BFBBDE80840FFF721
:104BF0005DBB00BF08B5FFF77FFD05F017FDBDE801
:104C00000840FFF753BB00BF08B5FFF775FD05F07F
:104C1000B9FCBDE80840FFF749BB00BF08B5FFF786
:104C20006BFD06F059F8BDE80840FFF73FBB00BF39
:104C300008B5FFF761FDFBF7A7FDBDE80840FFF7EA
:104C400035BB00BF08B5FFF757FDFBF70DFDBDE80D
:104C50000840FFF72BBB00BF08B5FFF74DFD05F07F
:104C60005FFCBDE80840FFF721BB00BF08B5FFF7B8
:104C700043FD054B002204F077FAFBF785FDBDE804
:104C80000840FFF713BB00BF0000E03F0E2831D003
:104C90000E292FD08842F8B505462DD001F001022B
:104CA000104201D00020F8BD0C46FFF7FFFC07467C
:104CB0002046FFF7FBFC8742F4D145EA040010F0E0
:104CC0000306EFD1032F19D0022FEBD12846FFF7AF
:104CD00013FD064620460F46FFF70EFD0B46024623
:104CE0003946304604F05AFE4FF0010300B903463E
:104CF000D8B2F8BD002070470120F8BDA11DA81D45
:104D000006F093FD0028CDDB0CBF01200020F8BD8C
:104D100008B5FFF7BBFF002814BF42200A2008BDDA
:104D200008B5FFF7B3FF00280CBF42200A2008BDDA
:104D30000E2858D00E29F8B50C4614D00628054682
:104D400047D0422849D00A2831D00629034600F02E
:104D50008680422C09D00A2C43D09C423FD004F0DC
:104D600001031D4204D00020F8BD0322934236D037
:104D70002846FFF79BFC06462046FFF797FC032ECC
:104D800033D0032817D0012E3ED0012832D08642DE
:104D9000E9D145EA040313F00306E4D1032852D015
:104DA000022836D0601BB0FA80F04009F8BD01231C
:104DB000062CDDD0CDE7022E2BD0012ED3D1062D2F
:104DC000D1D0422D4FF002063BD00A2DDDD1012576
:104DD000DBE7062903D00023BBE70323E8E7012034
:104DE000F8BD0122C2E700207047022811D0032835
:104DF000CBD1CEE7062C4FF002001ED0422C1ED0A5
:104E00000A2CC4D10124C2E7062DDAD102260025DE
:104E1000BBE72846FFF770FC064620460F46FFF723
:104E20006BFC02460B463046394604F0B7FD4FF0A6
:104E3000010400B90446E0B2F8BD0024A7E703244A
:104E4000A5E70325A1E7AC42C9D0A11DA81D06F026
:104E5000ECFC002887DB0CBF01200020F8BD0022FD
:104E600084E700BFFFF764BF08B5FFF761FF0028C4
:104E700014BF42200A2008BD08B5FFF759FF0028DB
:104E80000CBF42200A2008BD38B58307044608D16C
:104E9000B0B1FFF70BFC03280FD0022812D001207D
:104EA00038BD0A280CD05CB10E2C09D0062C07D0D6
:104EB00014F1FF3018BF012038BDA388002BEED1BC
:104EC000002038BD2046FFF717FC02460B4604467B
:104ED0000D4604F095FD0028F2D120462946002217
:104EE000002304F05BFDB0FA80F0400938BD00BF3C
:104EF000422805D00A2801D0FFF7C6BF002070471E
:104F0000012070470E284DD00E294BD0F8B50C4625
:104F10000546FFF7CBFB06462046FFF7C7FB032EEF
:104F20002AD0A54236D02846FFF7E6FB06462046A3
:104F30000F46FFF7E1FB324604460D463B4630463E
:104F4000394604F05DFD38BB22462B4620462946F3
:104F500004F056FD00BB22462B463046394604F08D
:104F600027FDE0B922462B463046394604F03EFD87
:104F7000003018BF0120F8BD0328D2D1A54209D0C6
:104F8000A11DA81D06F051FC002808DB14BF01205C
:104F90000020F8BD0020F8BD6FF00100F8BD4FF013
:104FA000FF30F8BD6FF00100704700BF38B501F069
:104FB000010313EA000404D08842ACBF00200120A2
:104FC00038BDFFF79FFF831C14BFC00F204638BDBC
:104FD00010B501F00104204203D0884207DC4220D2
:104FE00010BDFFF78FFF831C01D00028F7DD0A20DA
:104FF00010BD00BF10B501F00104204203D088426B
:1050000007DA422010BDFFF77DFF831C01D0002886
:10501000F7DB0A2010BD00BF10B501F001042042EB
:1050200003D0884205DB422010BDFFF76BFF00284C
:10503000F9DA0A2010BD00BF10B501F001042042CA
:1050400003D0884205DD422010BDFFF75BFF00283A
:10505000F9DC0A2010BD00BF70B590B00446FFF720
:1050600025FB032846D0022810D0052835D0002C77
:1050700058D00A2C58D00E2C3FD0422C56D02C4B56
:105080002C48062C08BF184610B070BDE30727D483
:105090000E2C32D02046FFF72FFB21F000460D46A4
:1050A0004FF0FF323146244B044604F0A9FC30BBDC
:1050B000204631464FF0FF321F4B04F083FCF0B91D
:1050C000204600232946002204F072FC1B4C1C4B96
:1050D000002814BF20461846D6E71A4810B070BD05
:1050E0006946601001F03CFB68464FF0FF31FEF767
:1050F00001FFC9E7204610B070BD1348C4E722463F
:1051000020462B46294604F07BFC0028F5D120469A
:1051100029466A46FBF71CF868464FF0FF31FEF758
:10512000E9FEB1E70948AFE70948ADE70948ABE751
:1051300064C0000888C00008FFFFEF7F54C000086B
:1051400038C0000898C0000848C00008F4BF000834
:105150007CC0000870C0000808B5FFF7A7FA052852
:1051600010D8DFE800F0030507090B0D084808BD5B
:10517000084808BD084808BD084808BD084808BDDB
:10518000084808BD40F2223003F070FA002008BD44
:1051900028C00008E4BF0008ACC00008CCC000086C
:1051A000BCC0000818C0000830B583B00446FFF743
:1051B0007DFA04280FD02046FFF74EFF0546204613
:1051C000FFF7CAFF2246811D1248AB1D03B0BDE8A0
:1051D000304001F0D1BC14F003010CD15CB1226865
:1051E0000D4D22F001004369AB420BD0204603B0C5
:1051F000BDE8304018472146084803B0BDE83040BC
:1052000001F0BABC038900880090054801F0B4FCA5
:1052100003B030BDC8BF0008A9510008D8BF0008BE
:10522000A0BF000810B504461248214601F0A4FCB6
:10523000A30706D13CB1216821F00101CB78F92BFD
:105240000AD0062C0FD02046FFF730FABDE81040F8
:1052500000F5757003F00ABA0B898A78064801F0E8
:105260008BFC062CEFD1BDE8104040F2DD3003F09E
:10527000FDB900BF4CBF000868BF000808B5014673
:10528000044801F079FCBDE808404FF4647003F075
:10529000EDB900BF88BF000838B5134B9D881C6866
:1052A00075B12368984211D00023221D05E01168D2
:1052B0001446814202F1040209D00133AB42F6D117
:1052C0004FF45270BDE8384003F0D0B90023013DDF
:1052D0009D42054803D000F0EBFB206038BDBDE8DF
:1052E000384000F0E5BB00BF5802002070B54FF415
:1052F000804002F0E9F843F6FE76054A054B156852
:105300001968041D4660856014600160186070BDF6
:1053100060020020540200202DE9F04F454B83B07D
:105320001F680190002F6DD04FF000084FF0020968
:105330004546464608F6FF7807F1040A07F5804B14
:10534000DAF80020D30740D4D34598BFCAF80090BC
:105350002AD954460AE0206883070FD5800804EB59
:105360008004A34511D92268D1073AD49207F2D418
:10537000204600F0F1FA20688307EFD4C269204686
:10538000904704EB8004A345EDD8A4EB0A029210E9
:10539000910041F00201012A1544CAF8001005DD10
:1053A000CAF804605646A246D345C9D83F68002FC4
:1053B000C0D1019B83BB05EB85056F001E4BB84533
:1053C0001E6024D203B0BDE8F08F22F001009407E4
:1053D000CAF8000012D580080AEB800AD345AFD87E
:1053E000E4E7A4EB0A029210910041F00201012AC5
:1053F0001544CAF80010D3DCA246A1E7C2695046A2
:105400009047E9E7019B83B90B4B019A1A6003B0FF
:10541000BDE8F04FFFF76ABF05EB85077F0029461F
:105420004246064801F0A8FBC8E7B8463E463D465E
:10543000F5E700BF5402002060020020DCC0000835
:10544000820720D138B5034600B3820E00D138BDA3
:105450001A68D107FBD4D178F929F8D1916942F0C3
:1054600001021A6001B18847094C254607E0284629
:1054700000F01EFB036823F001039B6923B9A38896
:10548000002BF4D1E3E770479847F8E738BD00BF39
:1054900064020020F8B5214B9E881D686EB100247F
:1054A000043D55F8040F0134C30744BF20F0010048
:1054B0000068FFF7C5FFA642F3D1194B1F68C7B1BB
:1054C0003E1D3168384600F05DFE7168044638467E
:1054D00000F058FE8442054605D254F8040BFFF74D
:1054E000AFFFA542F9D8B668002EEAD17F69002F38
:1054F000E6D10C4B1B685E8D00F02EFC0A4B1D683C
:1055000005EB8605861B07D00024013455F8040BF3
:10551000FFF796FFA642F8D1F8BD00BF5802002061
:1055200050020020700200206C020020036823F06B
:105530000103188880087047E8B138B5C36853B1D3
:105540001C6859689A6844608160C2601846BDE86A
:10555000384002F0F9BD43690BB182699A618269F2
:1055600004464AB15361204602F0EEFDBDE83840E2
:10557000002000F0FBBD7047074D2A68904204D020
:1055800040F2493003F072F863692B60002BEAD0D7
:1055900000229A61E7E700BF5002002038B50546B7
:1055A00000F0DEFD68B104460C2002F0CBFD211DA9
:1055B0000EC980E80E00E0600023A560636020460D
:1055C00038BD1C2002F0BEFD00210446084B094AEC
:1055D0001868136820606361E160A16103B19C6198
:1055E000146000F0C9FD2061204600F0BFFDE3E734
:1055F0006C02002050020020810702D178B1830E96
:1056000000D170470368DA07FBD4DA78F92AF8D1B9
:1056100043F0010303600146014800F045BA7047BA
:1056200064020020D9B1F8B50E4600240C4F051FC6
:1056300055F8041F88070ED169B18B0E0BD00B688B
:10564000DA0708D4DA78F92A05D143F001030B60B0
:10565000384600F029FA0134A642E9D1F8BD704776
:105660006402002010B50446FFF714FF2046BDE891
:105670001040FFF751BE00BF03302DE9F8438610FC
:10568000B6F5805F42D24FF00009DFF8A080D8F86D
:105690000050002745B926E0C6EB9404002C6B6847
:1056A0000EDA2F46FBB11D462C68A307F4D440F256
:1056B0004B30C6EB940402F0D9FF002C6B68F0DB92
:1056C0000AD0A20042F0020245F82620012C05EB88
:1056D00086061CBF73603346EFB17B60002328460B
:1056E0002B60BDE8F883B9F1000F09D0B9F1010FC3
:1056F00018D04FF4537002F0B9FF09F10109C6E761
:10570000FFF7C8FE4846FFF707FEF6E740F24D30C8
:1057100002F0ACFFB7E7C8F80030002328462B6042
:10572000BDE8F883FFF7E2FDE7E700BF6002002075
:1057300061B101290BDD38B54C1E013C0121051D6D
:10574000FFF7F6FF631C2846F7D138BD704740F0DD
:105750000101014800F0A8B958020020830702D1D6
:1057600030B1830E00D170470146024800F09CB969
:10577000704700BF580200208207034602D120B1C3
:105780009B0E00D17047FFF787BD704701894068C5
:10579000FFF748BF81880C30FFF744BF4068FFF730
:1057A0002BBF00BF10B5044601894068FFF73AFFE0
:1057B000218AE068BDE81040FFF734BF50F8043B91
:1057C00023F00103198804398908FFF72BBF00BFB4
:1057D00003207047808880000F308008704700BF2A
:1057E000022070470520704700230449044A0B60DB
:1057F0008B80CB8013609380D38070475802002049
:105800006402002000F0E6BB002801DB00F0DEBBF4
:10581000704700BF704700BF014600B5064B806867
:105820008A881B6883B0C31A00920448002201F0E2
:10583000A3F903B05DF804FB70020020B0C20008B9
:10584000014643680022014801F096B9ECC0000807
:10585000014603890022014801F08EB944C20008C4
:1058600038B50446002540686581258101F052FE67
:10587000656038BD38B504460025406865812581DE
:1058800001F048FE656065822582E06801F042FE15
:10589000E56038BD044608B5044803F005F8204625
:1058A00003F008F802F09EFFFEE700BF88C2000880
:1058B000704700BF704700BF0B6870B523F001034D
:1058C0001B890C46042B054609D01048012240F2E2
:1058D000853101F051F940F2853002F0C7FE0DB973
:1058E000204670BDE81C8000FFF7C6FE064608B1E2
:1058F000074B0360A368AAB2B360B5809200002191
:1059000006F10C0005F089FF304670BDA0C200080A
:10591000E0BD000838B502690D4B05469A4209D032
:105920000C4803224FF4627101F026F94FF46270C3
:1059300002F09CFE2888FFF79FFE044600B1056038
:105940002A880021043A201D05F067FF204638BD53
:10595000B1580008A0C20008036823F001031B69C6
:10596000184700BF036823F001031B69184700BFF5
:105970000368014623F001031B880022014801F05F
:10598000FBB800BF14C2000883888B4286BF03683F
:1059900053F821000020704708B9042070473F28C1
:1059A00014DDB0F5007F08DB4FF6FE7300F5807064
:1059B00098420ED94FF6FF707047074B00EB8000FE
:1059C00083FB0023A3EBE07080B27047400080B2FD
:1059D000704780B2704700BF565555552DE9F843C2
:1059E000C6888E4201DBBDE8F883044688000D4678
:1059F00001F06AFDD4F80080074676B9B146AA1BCB
:105A00009200002107EB090005F007FF404601F076
:105A100081FD2760E580BDE8F8834FEA86094146AD
:105A20004A4605F0D5FEEAE710B50446C088FFF700
:105A3000B3FF8142B8BF01462046BDE81040FFF7E2
:105A4000CDBF00BF30B5C38883B08B4205460C463E
:105A500009D9036843F82120AB889C4224BF013454
:105A6000AC8003B030BD4FF6FE739942F9D80131D6
:105A700089B20192FFF7D8FF2B68019A43F82420DE
:105A8000EAE700BFFFF7DEBF38B5C38804468B42A4
:105A90000D4602D28188994201DAA58038BDFFF710
:105AA000C3FFA58038BD00BF0A468188FFF7CABF83
:105AB00083884BB100210268013B9BB2838052F87E
:105AC000230042F82310704718467047F8B58388C2
:105AD0008B421DD905684A1C8F009342044655F835
